{"src/Splits.sol":{"Splits":{"abi":[{"inputs":[],"name":"FailedToSend","type":"error"},{"inputs":[{"internalType":"uint256","name":"valueSent","type":"uint256"},{"internalType":"uint256","name":"halfValue","type":"uint256"}],"name":"InvalidSplit","type":"error"},{"anonymous":false,"inputs":[{"indexed":false,"internalType":"address","name":"fromAddress","type":"address"},{"indexed":false,"internalType":"address","name":"toAddess","type":"address"},{"indexed":false,"internalType":"uint256","name":"etherAmount","type":"uint256"}],"name":"splitSuccess","type":"event"},{"inputs":[{"internalType":"address","name":"searchAddress","type":"address"}],"name":"getSplitHistory","outputs":[{"internalType":"uint256","name":"","type":"uint256"}],"stateMutability":"view","type":"function"},{"inputs":[{"internalType":"address payable","name":"toAddress","type":"address"}],"name":"sendSplit","outputs":[],"stateMutability":"payable","type":"function"}],"evm":{"bytecode":{"linkReferences":{},"object":"608060405234801561001057600080fd5b506104de806100206000396000f3fe6080604052600436106100295760003560e01c8063c2c30e1c1461002e578063e00a98811461004a575b600080fd5b6100486004803603810190610043919061026c565b610087565b005b34801561005657600080fd5b50610071600480360381019061006c91906102d7565b6101c1565b60405161007e919061031d565b60405180910390f35b6000808273ffffffffffffffffffffffffffffffffffffffff16346040516100ae90610369565b60006040518083038185875af1925050503d80600081146100eb576040519150601f19603f3d011682016040523d82523d6000602084013e6100f0565b606091505b50915091508161012c576040517f467d86d100000000000000000000000000000000000000000000000000000000815260040160405180910390fd5b346000803373ffffffffffffffffffffffffffffffffffffffff1673ffffffffffffffffffffffffffffffffffffffff168152602001908152602001600020600082825461017a91906103ad565b925050819055507f894f9caefbdb02511aa42f2a25a8132c7ae303f7f99b77f0f2f6de6c9480abac3384346040516101b493929190610471565b60405180910390a1505050565b60008060008373ffffffffffffffffffffffffffffffffffffffff1673ffffffffffffffffffffffffffffffffffffffff168152602001908152602001600020549050919050565b600080fd5b600073ffffffffffffffffffffffffffffffffffffffff82169050919050565b60006102398261020e565b9050919050565b6102498161022e565b811461025457600080fd5b50565b60008135905061026681610240565b92915050565b60006020828403121561028257610281610209565b5b600061029084828501610257565b91505092915050565b60006102a48261020e565b9050919050565b6102b481610299565b81146102bf57600080fd5b50565b6000813590506102d1816102ab565b92915050565b6000602082840312156102ed576102ec610209565b5b60006102fb848285016102c2565b91505092915050565b6000819050919050565b61031781610304565b82525050565b6000602082019050610332600083018461030e565b92915050565b600081905092915050565b50565b6000610353600083610338565b915061035e82610343565b600082019050919050565b600061037482610346565b9150819050919050565b7f4e487b7100000000000000000000000000000000000000000000000000000000600052601160045260246000fd5b60006103b882610304565b91506103c383610304565b9250827fffffffffffffffffffffffffffffffffffffffffffffffffffffffffffffffff038211156103f8576103f761037e565b5b828201905092915050565b61040c81610299565b82525050565b6000819050919050565b600061043761043261042d8461020e565b610412565b61020e565b9050919050565b60006104498261041c565b9050919050565b600061045b8261043e565b9050919050565b61046b81610450565b82525050565b60006060820190506104866000830186610403565b6104936020830185610462565b6104a0604083018461030e565b94935050505056fea2646970667358221220b157bf6ea732c67aed0fa46faa2a6188136b800c2f2d5bf56551dd270f4f431064736f6c634300080d0033","opcodes":"PUSH1 0x80 PUSH1 0x40 MSTORE CALLVALUE DUP1 ISZERO PUSH2 0x10 JUMPI PUSH1 0x0 DUP1 REVERT JUMPDEST POP PUSH2 0x4DE DUP1 PUSH2 0x20 PUSH1 0x0 CODECOPY PUSH1 0x0 RETURN INVALID PUSH1 0x80 PUSH1 0x40 MSTORE PUSH1 0x4 CALLDATASIZE LT PUSH2 0x29 JUMPI PUSH1 0x0 CALLDATALOAD PUSH1 0xE0 SHR DUP1 PUSH4 0xC2C30E1C EQ PUSH2 0x2E JUMPI DUP1 PUSH4 0xE00A9881 EQ PUSH2 0x4A JUMPI JUMPDEST PUSH1 0x0 DUP1 REVERT JUMPDEST PUSH2 0x48 PUSH1 0x4 DUP1 CALLDATASIZE SUB DUP2 ADD SWAP1 PUSH2 0x43 SWAP2 SWAP1 PUSH2 0x26C JUMP JUMPDEST PUSH2 0x87 JUMP JUMPDEST STOP JUMPDEST CALLVALUE DUP1 ISZERO PUSH2 0x56 JUMPI PUSH1 0x0 DUP1 REVERT JUMPDEST POP PUSH2 0x71 PUSH1 0x4 DUP1 CALLDATASIZE SUB DUP2 ADD SWAP1 PUSH2 0x6C SWAP2 SWAP1 PUSH2 0x2D7 JUMP JUMPDEST PUSH2 0x1C1 JUMP JUMPDEST PUSH1 0x40 MLOAD PUSH2 0x7E SWAP2 SWAP1 PUSH2 0x31D JUMP JUMPDEST PUSH1 0x40 MLOAD DUP1 SWAP2 SUB SWAP1 RETURN JUMPDEST PUSH1 0x0 DUP1 DUP3 PUSH20 0xFFFFFFFFFFFFFFFFFFFFFFFFFFFFFFFFFFFFFFFF AND CALLVALUE PUSH1 0x40 MLOAD PUSH2 0xAE SWAP1 PUSH2 0x369 JUMP JUMPDEST PUSH1 0x0 PUSH1 0x40 MLOAD DUP1 DUP4 SUB DUP2 DUP6 DUP8 GAS CALL SWAP3 POP POP POP RETURNDATASIZE DUP1 PUSH1 0x0 DUP2 EQ PUSH2 0xEB JUMPI PUSH1 0x40 MLOAD SWAP2 POP PUSH1 0x1F NOT PUSH1 0x3F RETURNDATASIZE ADD AND DUP3 ADD PUSH1 0x40 MSTORE RETURNDATASIZE DUP3 MSTORE RETURNDATASIZE PUSH1 0x0 PUSH1 0x20 DUP5 ADD RETURNDATACOPY PUSH2 0xF0 JUMP JUMPDEST PUSH1 0x60 SWAP2 POP JUMPDEST POP SWAP2 POP SWAP2 POP DUP2 PUSH2 0x12C JUMPI PUSH1 0x40 MLOAD PUSH32 0x467D86D100000000000000000000000000000000000000000000000000000000 DUP2 MSTORE PUSH1 0x4 ADD PUSH1 0x40 MLOAD DUP1 SWAP2 SUB SWAP1 REVERT JUMPDEST CALLVALUE PUSH1 0x0 DUP1 CALLER PUSH20 0xFFFFFFFFFFFFFFFFFFFFFFFFFFFFFFFFFFFFFFFF AND PUSH20 0xFFFFFFFFFFFFFFFFFFFFFFFFFFFFFFFFFFFFFFFF AND DUP2 MSTORE PUSH1 0x20 ADD SWAP1 DUP2 MSTORE PUSH1 0x20 ADD PUSH1 0x0 KECCAK256 PUSH1 0x0 DUP3 DUP3 SLOAD PUSH2 0x17A SWAP2 SWAP1 PUSH2 0x3AD JUMP JUMPDEST SWAP3 POP POP DUP2 SWAP1 SSTORE POP PUSH32 0x894F9CAEFBDB02511AA42F2A25A8132C7AE303F7F99B77F0F2F6DE6C9480ABAC CALLER DUP5 CALLVALUE PUSH1 0x40 MLOAD PUSH2 0x1B4 SWAP4 SWAP3 SWAP2 SWAP1 PUSH2 0x471 JUMP JUMPDEST PUSH1 0x40 MLOAD DUP1 SWAP2 SUB SWAP1 LOG1 POP POP POP JUMP JUMPDEST PUSH1 0x0 DUP1 PUSH1 0x0 DUP4 PUSH20 0xFFFFFFFFFFFFFFFFFFFFFFFFFFFFFFFFFFFFFFFF AND PUSH20 0xFFFFFFFFFFFFFFFFFFFFFFFFFFFFFFFFFFFFFFFF AND DUP2 MSTORE PUSH1 0x20 ADD SWAP1 DUP2 MSTORE PUSH1 0x20 ADD PUSH1 0x0 KECCAK256 SLOAD SWAP1 POP SWAP2 SWAP1 POP JUMP JUMPDEST PUSH1 0x0 DUP1 REVERT JUMPDEST PUSH1 0x0 PUSH20 0xFFFFFFFFFFFFFFFFFFFFFFFFFFFFFFFFFFFFFFFF DUP3 AND SWAP1 POP SWAP2 SWAP1 POP JUMP JUMPDEST PUSH1 0x0 PUSH2 0x239 DUP3 PUSH2 0x20E JUMP JUMPDEST SWAP1 POP SWAP2 SWAP1 POP JUMP JUMPDEST PUSH2 0x249 DUP2 PUSH2 0x22E JUMP JUMPDEST DUP2 EQ PUSH2 0x254 JUMPI PUSH1 0x0 DUP1 REVERT JUMPDEST POP JUMP JUMPDEST PUSH1 0x0 DUP2 CALLDATALOAD SWAP1 POP PUSH2 0x266 DUP2 PUSH2 0x240 JUMP JUMPDEST SWAP3 SWAP2 POP POP JUMP JUMPDEST PUSH1 0x0 PUSH1 0x20 DUP3 DUP5 SUB SLT ISZERO PUSH2 0x282 JUMPI PUSH2 0x281 PUSH2 0x209 JUMP JUMPDEST JUMPDEST PUSH1 0x0 PUSH2 0x290 DUP5 DUP3 DUP6 ADD PUSH2 0x257 JUMP JUMPDEST SWAP2 POP POP SWAP3 SWAP2 POP POP JUMP JUMPDEST PUSH1 0x0 PUSH2 0x2A4 DUP3 PUSH2 0x20E JUMP JUMPDEST SWAP1 POP SWAP2 SWAP1 POP JUMP JUMPDEST PUSH2 0x2B4 DUP2 PUSH2 0x299 JUMP JUMPDEST DUP2 EQ PUSH2 0x2BF JUMPI PUSH1 0x0 DUP1 REVERT JUMPDEST POP JUMP JUMPDEST PUSH1 0x0 DUP2 CALLDATALOAD SWAP1 POP PUSH2 0x2D1 DUP2 PUSH2 0x2AB JUMP JUMPDEST SWAP3 SWAP2 POP POP JUMP JUMPDEST PUSH1 0x0 PUSH1 0x20 DUP3 DUP5 SUB SLT ISZERO PUSH2 0x2ED JUMPI PUSH2 0x2EC PUSH2 0x209 JUMP JUMPDEST JUMPDEST PUSH1 0x0 PUSH2 0x2FB DUP5 DUP3 DUP6 ADD PUSH2 0x2C2 JUMP JUMPDEST SWAP2 POP POP SWAP3 SWAP2 POP POP JUMP JUMPDEST PUSH1 0x0 DUP2 SWAP1 POP SWAP2 SWAP1 POP JUMP JUMPDEST PUSH2 0x317 DUP2 PUSH2 0x304 JUMP JUMPDEST DUP3 MSTORE POP POP JUMP JUMPDEST PUSH1 0x0 PUSH1 0x20 DUP3 ADD SWAP1 POP PUSH2 0x332 PUSH1 0x0 DUP4 ADD DUP5 PUSH2 0x30E JUMP JUMPDEST SWAP3 SWAP2 POP POP JUMP JUMPDEST PUSH1 0x0 DUP2 SWAP1 POP SWAP3 SWAP2 POP POP JUMP JUMPDEST POP JUMP JUMPDEST PUSH1 0x0 PUSH2 0x353 PUSH1 0x0 DUP4 PUSH2 0x338 JUMP JUMPDEST SWAP2 POP PUSH2 0x35E DUP3 PUSH2 0x343 JUMP JUMPDEST PUSH1 0x0 DUP3 ADD SWAP1 POP SWAP2 SWAP1 POP JUMP JUMPDEST PUSH1 0x0 PUSH2 0x374 DUP3 PUSH2 0x346 JUMP JUMPDEST SWAP2 POP DUP2 SWAP1 POP SWAP2 SWAP1 POP JUMP JUMPDEST PUSH32 0x4E487B7100000000000000000000000000000000000000000000000000000000 PUSH1 0x0 MSTORE PUSH1 0x11 PUSH1 0x4 MSTORE PUSH1 0x24 PUSH1 0x0 REVERT JUMPDEST PUSH1 0x0 PUSH2 0x3B8 DUP3 PUSH2 0x304 JUMP JUMPDEST SWAP2 POP PUSH2 0x3C3 DUP4 PUSH2 0x304 JUMP JUMPDEST SWAP3 POP DUP3 PUSH32 0xFFFFFFFFFFFFFFFFFFFFFFFFFFFFFFFFFFFFFFFFFFFFFFFFFFFFFFFFFFFFFFFF SUB DUP3 GT ISZERO PUSH2 0x3F8 JUMPI PUSH2 0x3F7 PUSH2 0x37E JUMP JUMPDEST JUMPDEST DUP3 DUP3 ADD SWAP1 POP SWAP3 SWAP2 POP POP JUMP JUMPDEST PUSH2 0x40C DUP2 PUSH2 0x299 JUMP JUMPDEST DUP3 MSTORE POP POP JUMP JUMPDEST PUSH1 0x0 DUP2 SWAP1 POP SWAP2 SWAP1 POP JUMP JUMPDEST PUSH1 0x0 PUSH2 0x437 PUSH2 0x432 PUSH2 0x42D DUP5 PUSH2 0x20E JUMP JUMPDEST PUSH2 0x412 JUMP JUMPDEST PUSH2 0x20E JUMP JUMPDEST SWAP1 POP SWAP2 SWAP1 POP JUMP JUMPDEST PUSH1 0x0 PUSH2 0x449 DUP3 PUSH2 0x41C JUMP JUMPDEST SWAP1 POP SWAP2 SWAP1 POP JUMP JUMPDEST PUSH1 0x0 PUSH2 0x45B DUP3 PUSH2 0x43E JUMP JUMPDEST SWAP1 POP SWAP2 SWAP1 POP JUMP JUMPDEST PUSH2 0x46B DUP2 PUSH2 0x450 JUMP JUMPDEST DUP3 MSTORE POP POP JUMP JUMPDEST PUSH1 0x0 PUSH1 0x60 DUP3 ADD SWAP1 POP PUSH2 0x486 PUSH1 0x0 DUP4 ADD DUP7 PUSH2 0x403 JUMP JUMPDEST PUSH2 0x493 PUSH1 0x20 DUP4 ADD DUP6 PUSH2 0x462 JUMP JUMPDEST PUSH2 0x4A0 PUSH1 0x40 DUP4 ADD DUP5 PUSH2 0x30E JUMP JUMPDEST SWAP5 SWAP4 POP POP POP POP JUMP INVALID LOG2 PUSH5 0x6970667358 0x22 SLT KECCAK256 0xB1 JUMPI 0xBF PUSH15 0xA732C67AED0FA46FAA2A6188136B80 0xC 0x2F 0x2D JUMPDEST CREATE2 PUSH6 0x51DD270F4F43 LT PUSH5 0x736F6C6343 STOP ADDMOD 0xD STOP CALLER "},"methodIdentifiers":{"getSplitHistory(address)":"e00a9881","sendSplit(address)":"c2c30e1c"}}}}}