{"src/Splits.sol":{"Splits":{"abi":[{"inputs":[],"name":"FailedToSend","type":"error"},{"inputs":[{"internalType":"uint256","name":"valueSent","type":"uint256"},{"internalType":"uint256","name":"halfValue","type":"uint256"}],"name":"InvalidSplit","type":"error"},{"anonymous":false,"inputs":[{"indexed":false,"internalType":"address","name":"fromAddress","type":"address"},{"indexed":false,"internalType":"address","name":"toAddess","type":"address"},{"indexed":false,"internalType":"uint256","name":"etherAmount","type":"uint256"}],"name":"splitSuccess","type":"event"},{"inputs":[{"internalType":"address payable","name":"toAddress","type":"address"}],"name":"sendSplit","outputs":[],"stateMutability":"payable","type":"function"}],"evm":{"bytecode":{"linkReferences":{},"object":"608060405234801561001057600080fd5b506103f2806100206000396000f3fe60806040526004361061001e5760003560e01c8063c2c30e1c14610023575b600080fd5b61003d60048036038101906100389190610250565b61003f565b005b60003373ffffffffffffffffffffffffffffffffffffffff16319050803411156100a25734816040517f39d6df17000000000000000000000000000000000000000000000000000000008152600401610099929190610296565b60405180910390fd5b6000808373ffffffffffffffffffffffffffffffffffffffff16346040516100c9906102f0565b60006040518083038185875af1925050503d8060008114610106576040519150601f19603f3d011682016040523d82523d6000602084013e61010b565b606091505b509150915081610147576040517f467d86d100000000000000000000000000000000000000000000000000000000815260040160405180910390fd5b6000803373ffffffffffffffffffffffffffffffffffffffff1673ffffffffffffffffffffffffffffffffffffffff1681526020019081526020016000203490806001815401808255809150506001900390600052602060002001600090919091909150557f894f9caefbdb02511aa42f2a25a8132c7ae303f7f99b77f0f2f6de6c9480abac3385346040516101df93929190610385565b60405180910390a150505050565b600080fd5b600073ffffffffffffffffffffffffffffffffffffffff82169050919050565b600061021d826101f2565b9050919050565b61022d81610212565b811461023857600080fd5b50565b60008135905061024a81610224565b92915050565b600060208284031215610266576102656101ed565b5b60006102748482850161023b565b91505092915050565b6000819050919050565b6102908161027d565b82525050565b60006040820190506102ab6000830185610287565b6102b86020830184610287565b9392505050565b600081905092915050565b50565b60006102da6000836102bf565b91506102e5826102ca565b600082019050919050565b60006102fb826102cd565b9150819050919050565b6000610310826101f2565b9050919050565b61032081610305565b82525050565b6000819050919050565b600061034b610346610341846101f2565b610326565b6101f2565b9050919050565b600061035d82610330565b9050919050565b600061036f82610352565b9050919050565b61037f81610364565b82525050565b600060608201905061039a6000830186610317565b6103a76020830185610376565b6103b46040830184610287565b94935050505056fea26469706673582212206d54d10e5a6cc8816312db7b73b47693b136bc7b26f4303d0e96202c7c9d133e64736f6c634300080d0033","opcodes":"PUSH1 0x80 PUSH1 0x40 MSTORE CALLVALUE DUP1 ISZERO PUSH2 0x10 JUMPI PUSH1 0x0 DUP1 REVERT JUMPDEST POP PUSH2 0x3F2 DUP1 PUSH2 0x20 PUSH1 0x0 CODECOPY PUSH1 0x0 RETURN INVALID PUSH1 0x80 PUSH1 0x40 MSTORE PUSH1 0x4 CALLDATASIZE LT PUSH2 0x1E JUMPI PUSH1 0x0 CALLDATALOAD PUSH1 0xE0 SHR DUP1 PUSH4 0xC2C30E1C EQ PUSH2 0x23 JUMPI JUMPDEST PUSH1 0x0 DUP1 REVERT JUMPDEST PUSH2 0x3D PUSH1 0x4 DUP1 CALLDATASIZE SUB DUP2 ADD SWAP1 PUSH2 0x38 SWAP2 SWAP1 PUSH2 0x250 JUMP JUMPDEST PUSH2 0x3F JUMP JUMPDEST STOP JUMPDEST PUSH1 0x0 CALLER PUSH20 0xFFFFFFFFFFFFFFFFFFFFFFFFFFFFFFFFFFFFFFFF AND BALANCE SWAP1 POP DUP1 CALLVALUE GT ISZERO PUSH2 0xA2 JUMPI CALLVALUE DUP2 PUSH1 0x40 MLOAD PUSH32 0x39D6DF1700000000000000000000000000000000000000000000000000000000 DUP2 MSTORE PUSH1 0x4 ADD PUSH2 0x99 SWAP3 SWAP2 SWAP1 PUSH2 0x296 JUMP JUMPDEST PUSH1 0x40 MLOAD DUP1 SWAP2 SUB SWAP1 REVERT JUMPDEST PUSH1 0x0 DUP1 DUP4 PUSH20 0xFFFFFFFFFFFFFFFFFFFFFFFFFFFFFFFFFFFFFFFF AND CALLVALUE PUSH1 0x40 MLOAD PUSH2 0xC9 SWAP1 PUSH2 0x2F0 JUMP JUMPDEST PUSH1 0x0 PUSH1 0x40 MLOAD DUP1 DUP4 SUB DUP2 DUP6 DUP8 GAS CALL SWAP3 POP POP POP RETURNDATASIZE DUP1 PUSH1 0x0 DUP2 EQ PUSH2 0x106 JUMPI PUSH1 0x40 MLOAD SWAP2 POP PUSH1 0x1F NOT PUSH1 0x3F RETURNDATASIZE ADD AND DUP3 ADD PUSH1 0x40 MSTORE RETURNDATASIZE DUP3 MSTORE RETURNDATASIZE PUSH1 0x0 PUSH1 0x20 DUP5 ADD RETURNDATACOPY PUSH2 0x10B JUMP JUMPDEST PUSH1 0x60 SWAP2 POP JUMPDEST POP SWAP2 POP SWAP2 POP DUP2 PUSH2 0x147 JUMPI PUSH1 0x40 MLOAD PUSH32 0x467D86D100000000000000000000000000000000000000000000000000000000 DUP2 MSTORE PUSH1 0x4 ADD PUSH1 0x40 MLOAD DUP1 SWAP2 SUB SWAP1 REVERT JUMPDEST PUSH1 0x0 DUP1 CALLER PUSH20 0xFFFFFFFFFFFFFFFFFFFFFFFFFFFFFFFFFFFFFFFF AND PUSH20 0xFFFFFFFFFFFFFFFFFFFFFFFFFFFFFFFFFFFFFFFF AND DUP2 MSTORE PUSH1 0x20 ADD SWAP1 DUP2 MSTORE PUSH1 0x20 ADD PUSH1 0x0 KECCAK256 CALLVALUE SWAP1 DUP1 PUSH1 0x1 DUP2 SLOAD ADD DUP1 DUP3 SSTORE DUP1 SWAP2 POP POP PUSH1 0x1 SWAP1 SUB SWAP1 PUSH1 0x0 MSTORE PUSH1 0x20 PUSH1 0x0 KECCAK256 ADD PUSH1 0x0 SWAP1 SWAP2 SWAP1 SWAP2 SWAP1 SWAP2 POP SSTORE PUSH32 0x894F9CAEFBDB02511AA42F2A25A8132C7AE303F7F99B77F0F2F6DE6C9480ABAC CALLER DUP6 CALLVALUE PUSH1 0x40 MLOAD PUSH2 0x1DF SWAP4 SWAP3 SWAP2 SWAP1 PUSH2 0x385 JUMP JUMPDEST PUSH1 0x40 MLOAD DUP1 SWAP2 SUB SWAP1 LOG1 POP POP POP POP JUMP JUMPDEST PUSH1 0x0 DUP1 REVERT JUMPDEST PUSH1 0x0 PUSH20 0xFFFFFFFFFFFFFFFFFFFFFFFFFFFFFFFFFFFFFFFF DUP3 AND SWAP1 POP SWAP2 SWAP1 POP JUMP JUMPDEST PUSH1 0x0 PUSH2 0x21D DUP3 PUSH2 0x1F2 JUMP JUMPDEST SWAP1 POP SWAP2 SWAP1 POP JUMP JUMPDEST PUSH2 0x22D DUP2 PUSH2 0x212 JUMP JUMPDEST DUP2 EQ PUSH2 0x238 JUMPI PUSH1 0x0 DUP1 REVERT JUMPDEST POP JUMP JUMPDEST PUSH1 0x0 DUP2 CALLDATALOAD SWAP1 POP PUSH2 0x24A DUP2 PUSH2 0x224 JUMP JUMPDEST SWAP3 SWAP2 POP POP JUMP JUMPDEST PUSH1 0x0 PUSH1 0x20 DUP3 DUP5 SUB SLT ISZERO PUSH2 0x266 JUMPI PUSH2 0x265 PUSH2 0x1ED JUMP JUMPDEST JUMPDEST PUSH1 0x0 PUSH2 0x274 DUP5 DUP3 DUP6 ADD PUSH2 0x23B JUMP JUMPDEST SWAP2 POP POP SWAP3 SWAP2 POP POP JUMP JUMPDEST PUSH1 0x0 DUP2 SWAP1 POP SWAP2 SWAP1 POP JUMP JUMPDEST PUSH2 0x290 DUP2 PUSH2 0x27D JUMP JUMPDEST DUP3 MSTORE POP POP JUMP JUMPDEST PUSH1 0x0 PUSH1 0x40 DUP3 ADD SWAP1 POP PUSH2 0x2AB PUSH1 0x0 DUP4 ADD DUP6 PUSH2 0x287 JUMP JUMPDEST PUSH2 0x2B8 PUSH1 0x20 DUP4 ADD DUP5 PUSH2 0x287 JUMP JUMPDEST SWAP4 SWAP3 POP POP POP JUMP JUMPDEST PUSH1 0x0 DUP2 SWAP1 POP SWAP3 SWAP2 POP POP JUMP JUMPDEST POP JUMP JUMPDEST PUSH1 0x0 PUSH2 0x2DA PUSH1 0x0 DUP4 PUSH2 0x2BF JUMP JUMPDEST SWAP2 POP PUSH2 0x2E5 DUP3 PUSH2 0x2CA JUMP JUMPDEST PUSH1 0x0 DUP3 ADD SWAP1 POP SWAP2 SWAP1 POP JUMP JUMPDEST PUSH1 0x0 PUSH2 0x2FB DUP3 PUSH2 0x2CD JUMP JUMPDEST SWAP2 POP DUP2 SWAP1 POP SWAP2 SWAP1 POP JUMP JUMPDEST PUSH1 0x0 PUSH2 0x310 DUP3 PUSH2 0x1F2 JUMP JUMPDEST SWAP1 POP SWAP2 SWAP1 POP JUMP JUMPDEST PUSH2 0x320 DUP2 PUSH2 0x305 JUMP JUMPDEST DUP3 MSTORE POP POP JUMP JUMPDEST PUSH1 0x0 DUP2 SWAP1 POP SWAP2 SWAP1 POP JUMP JUMPDEST PUSH1 0x0 PUSH2 0x34B PUSH2 0x346 PUSH2 0x341 DUP5 PUSH2 0x1F2 JUMP JUMPDEST PUSH2 0x326 JUMP JUMPDEST PUSH2 0x1F2 JUMP JUMPDEST SWAP1 POP SWAP2 SWAP1 POP JUMP JUMPDEST PUSH1 0x0 PUSH2 0x35D DUP3 PUSH2 0x330 JUMP JUMPDEST SWAP1 POP SWAP2 SWAP1 POP JUMP JUMPDEST PUSH1 0x0 PUSH2 0x36F DUP3 PUSH2 0x352 JUMP JUMPDEST SWAP1 POP SWAP2 SWAP1 POP JUMP JUMPDEST PUSH2 0x37F DUP2 PUSH2 0x364 JUMP JUMPDEST DUP3 MSTORE POP POP JUMP JUMPDEST PUSH1 0x0 PUSH1 0x60 DUP3 ADD SWAP1 POP PUSH2 0x39A PUSH1 0x0 DUP4 ADD DUP7 PUSH2 0x317 JUMP JUMPDEST PUSH2 0x3A7 PUSH1 0x20 DUP4 ADD DUP6 PUSH2 0x376 JUMP JUMPDEST PUSH2 0x3B4 PUSH1 0x40 DUP4 ADD DUP5 PUSH2 0x287 JUMP JUMPDEST SWAP5 SWAP4 POP POP POP POP JUMP INVALID LOG2 PUSH5 0x6970667358 0x22 SLT KECCAK256 PUSH14 0x54D10E5A6CC8816312DB7B73B476 SWAP4 0xB1 CALLDATASIZE 0xBC PUSH28 0x26F4303D0E96202C7C9D133E64736F6C634300080D00330000000000 "},"methodIdentifiers":{"sendSplit(address)":"c2c30e1c"}}}}}