{
  "_format": "hh-sol-artifact-1",
  "contractName": "Splits",
  "sourceName": "src/Splits.sol",
  "abi": [
    {
      "inputs": [],
      "name": "FailedToSend",
      "type": "error"
    },
    {
      "inputs": [
        {
          "internalType": "uint256",
          "name": "valueSent",
          "type": "uint256"
        },
        {
          "internalType": "uint256",
          "name": "halfValue",
          "type": "uint256"
        }
      ],
      "name": "InvalidSplit",
      "type": "error"
    },
    {
      "anonymous": false,
      "inputs": [
        {
          "indexed": false,
          "internalType": "address",
          "name": "fromAddress",
          "type": "address"
        },
        {
          "indexed": false,
          "internalType": "address",
          "name": "toAddess",
          "type": "address"
        },
        {
          "indexed": false,
          "internalType": "uint256",
          "name": "etherAmount",
          "type": "uint256"
        }
      ],
      "name": "splitSuccess",
      "type": "event"
    },
    {
      "inputs": [
        {
          "internalType": "address",
          "name": "searchAddress",
          "type": "address"
        }
      ],
      "name": "getSplitHistory",
      "outputs": [
        {
          "internalType": "uint256",
          "name": "",
          "type": "uint256"
        }
      ],
      "stateMutability": "view",
      "type": "function"
    },
    {
      "inputs": [
        {
          "internalType": "address payable",
          "name": "toAddress",
          "type": "address"
        }
      ],
      "name": "sendSplit",
      "outputs": [],
      "stateMutability": "payable",
      "type": "function"
    }
  ],
  "bytecode": "0x608060405234801561001057600080fd5b506104de806100206000396000f3fe6080604052600436106100295760003560e01c8063c2c30e1c1461002e578063e00a98811461004a575b600080fd5b6100486004803603810190610043919061026c565b610087565b005b34801561005657600080fd5b50610071600480360381019061006c91906102d7565b6101c1565b60405161007e919061031d565b60405180910390f35b6000808273ffffffffffffffffffffffffffffffffffffffff16346040516100ae90610369565b60006040518083038185875af1925050503d80600081146100eb576040519150601f19603f3d011682016040523d82523d6000602084013e6100f0565b606091505b50915091508161012c576040517f467d86d100000000000000000000000000000000000000000000000000000000815260040160405180910390fd5b346000803373ffffffffffffffffffffffffffffffffffffffff1673ffffffffffffffffffffffffffffffffffffffff168152602001908152602001600020600082825461017a91906103ad565b925050819055507f894f9caefbdb02511aa42f2a25a8132c7ae303f7f99b77f0f2f6de6c9480abac3384346040516101b493929190610471565b60405180910390a1505050565b60008060008373ffffffffffffffffffffffffffffffffffffffff1673ffffffffffffffffffffffffffffffffffffffff168152602001908152602001600020549050919050565b600080fd5b600073ffffffffffffffffffffffffffffffffffffffff82169050919050565b60006102398261020e565b9050919050565b6102498161022e565b811461025457600080fd5b50565b60008135905061026681610240565b92915050565b60006020828403121561028257610281610209565b5b600061029084828501610257565b91505092915050565b60006102a48261020e565b9050919050565b6102b481610299565b81146102bf57600080fd5b50565b6000813590506102d1816102ab565b92915050565b6000602082840312156102ed576102ec610209565b5b60006102fb848285016102c2565b91505092915050565b6000819050919050565b61031781610304565b82525050565b6000602082019050610332600083018461030e565b92915050565b600081905092915050565b50565b6000610353600083610338565b915061035e82610343565b600082019050919050565b600061037482610346565b9150819050919050565b7f4e487b7100000000000000000000000000000000000000000000000000000000600052601160045260246000fd5b60006103b882610304565b91506103c383610304565b9250827fffffffffffffffffffffffffffffffffffffffffffffffffffffffffffffffff038211156103f8576103f761037e565b5b828201905092915050565b61040c81610299565b82525050565b6000819050919050565b600061043761043261042d8461020e565b610412565b61020e565b9050919050565b60006104498261041c565b9050919050565b600061045b8261043e565b9050919050565b61046b81610450565b82525050565b60006060820190506104866000830186610403565b6104936020830185610462565b6104a0604083018461030e565b94935050505056fea2646970667358221220b157bf6ea732c67aed0fa46faa2a6188136b800c2f2d5bf56551dd270f4f431064736f6c634300080d0033",
  "linkReferences": {},
  "deployedLinkReferences": {}
}