{
  "_format": "hh-sol-artifact-1",
  "contractName": "Splits",
  "sourceName": "src/Splits.sol",
  "abi": [
    {
      "inputs": [],
      "name": "FailedToSend",
      "type": "error"
    },
    {
      "inputs": [
        {
          "internalType": "uint256",
          "name": "valueSent",
          "type": "uint256"
        },
        {
          "internalType": "uint256",
          "name": "halfValue",
          "type": "uint256"
        }
      ],
      "name": "InvalidSplit",
      "type": "error"
    },
    {
      "anonymous": false,
      "inputs": [
        {
          "indexed": false,
          "internalType": "address",
          "name": "fromAddress",
          "type": "address"
        },
        {
          "indexed": false,
          "internalType": "address",
          "name": "toAddess",
          "type": "address"
        },
        {
          "indexed": false,
          "internalType": "uint256",
          "name": "etherAmount",
          "type": "uint256"
        }
      ],
      "name": "splitSuccess",
      "type": "event"
    },
    {
      "inputs": [
        {
          "internalType": "address payable",
          "name": "toAddress",
          "type": "address"
        }
      ],
      "name": "sendSplit",
      "outputs": [],
      "stateMutability": "payable",
      "type": "function"
    }
  ],
  "bytecode": "0x608060405234801561001057600080fd5b506103f2806100206000396000f3fe60806040526004361061001e5760003560e01c8063c2c30e1c14610023575b600080fd5b61003d60048036038101906100389190610250565b61003f565b005b60003373ffffffffffffffffffffffffffffffffffffffff16319050803411156100a25734816040517f39d6df17000000000000000000000000000000000000000000000000000000008152600401610099929190610296565b60405180910390fd5b6000808373ffffffffffffffffffffffffffffffffffffffff16346040516100c9906102f0565b60006040518083038185875af1925050503d8060008114610106576040519150601f19603f3d011682016040523d82523d6000602084013e61010b565b606091505b509150915081610147576040517f467d86d100000000000000000000000000000000000000000000000000000000815260040160405180910390fd5b6000803373ffffffffffffffffffffffffffffffffffffffff1673ffffffffffffffffffffffffffffffffffffffff1681526020019081526020016000203490806001815401808255809150506001900390600052602060002001600090919091909150557f894f9caefbdb02511aa42f2a25a8132c7ae303f7f99b77f0f2f6de6c9480abac3385346040516101df93929190610385565b60405180910390a150505050565b600080fd5b600073ffffffffffffffffffffffffffffffffffffffff82169050919050565b600061021d826101f2565b9050919050565b61022d81610212565b811461023857600080fd5b50565b60008135905061024a81610224565b92915050565b600060208284031215610266576102656101ed565b5b60006102748482850161023b565b91505092915050565b6000819050919050565b6102908161027d565b82525050565b60006040820190506102ab6000830185610287565b6102b86020830184610287565b9392505050565b600081905092915050565b50565b60006102da6000836102bf565b91506102e5826102ca565b600082019050919050565b60006102fb826102cd565b9150819050919050565b6000610310826101f2565b9050919050565b61032081610305565b82525050565b6000819050919050565b600061034b610346610341846101f2565b610326565b6101f2565b9050919050565b600061035d82610330565b9050919050565b600061036f82610352565b9050919050565b61037f81610364565b82525050565b600060608201905061039a6000830186610317565b6103a76020830185610376565b6103b46040830184610287565b94935050505056fea26469706673582212206d54d10e5a6cc8816312db7b73b47693b136bc7b26f4303d0e96202c7c9d133e64736f6c634300080d0033",
  "linkReferences": {},
  "deployedLinkReferences": {}
}