{
  "_format": "hh-sol-artifact-1",
  "contractName": "Splits",
  "sourceName": "src/Splits.sol",
  "abi": [
    {
      "inputs": [],
      "name": "FailedToSend",
      "type": "error"
    },
    {
      "inputs": [
        {
          "internalType": "uint256",
          "name": "valueSent",
          "type": "uint256"
        },
        {
          "internalType": "uint256",
          "name": "halfValue",
          "type": "uint256"
        }
      ],
      "name": "InvalidSplit",
      "type": "error"
    },
    {
      "anonymous": false,
      "inputs": [
        {
          "indexed": false,
          "internalType": "address",
          "name": "fromAddress",
          "type": "address"
        },
        {
          "indexed": false,
          "internalType": "address",
          "name": "toAddess",
          "type": "address"
        },
        {
          "indexed": false,
          "internalType": "uint256",
          "name": "etherAmount",
          "type": "uint256"
        }
      ],
      "name": "splitSuccess",
      "type": "event"
    },
    {
      "inputs": [
        {
          "internalType": "address",
          "name": "searchAddress",
          "type": "address"
        }
      ],
      "name": "getSplitHistory",
      "outputs": [
        {
          "internalType": "uint256",
          "name": "",
          "type": "uint256"
        }
      ],
      "stateMutability": "view",
      "type": "function"
    },
    {
      "inputs": [
        {
          "internalType": "address payable",
          "name": "toAddress",
          "type": "address"
        }
      ],
      "name": "sendSplit",
      "outputs": [],
      "stateMutability": "payable",
      "type": "function"
    }
  ],
  "bytecode": "0x608060405234801561001057600080fd5b5061056b806100206000396000f3fe6080604052600436106100295760003560e01c8063c2c30e1c1461002e578063e00a98811461004a575b600080fd5b610048600480360381019061004391906102d0565b610087565b005b34801561005657600080fd5b50610071600480360381019061006c919061033b565b610225565b60405161007e9190610381565b60405180910390f35b60003373ffffffffffffffffffffffffffffffffffffffff16319050803411156100ea5734816040517f39d6df170000000000000000000000000000000000000000000000000000000081526004016100e192919061039c565b60405180910390fd5b6000808373ffffffffffffffffffffffffffffffffffffffff1634604051610111906103f6565b60006040518083038185875af1925050503d806000811461014e576040519150601f19603f3d011682016040523d82523d6000602084013e610153565b606091505b50915091508161018f576040517f467d86d100000000000000000000000000000000000000000000000000000000815260040160405180910390fd5b346000803373ffffffffffffffffffffffffffffffffffffffff1673ffffffffffffffffffffffffffffffffffffffff16815260200190815260200160002060008282546101dd919061043a565b925050819055507f894f9caefbdb02511aa42f2a25a8132c7ae303f7f99b77f0f2f6de6c9480abac338534604051610217939291906104fe565b60405180910390a150505050565b60008060008373ffffffffffffffffffffffffffffffffffffffff1673ffffffffffffffffffffffffffffffffffffffff168152602001908152602001600020549050919050565b600080fd5b600073ffffffffffffffffffffffffffffffffffffffff82169050919050565b600061029d82610272565b9050919050565b6102ad81610292565b81146102b857600080fd5b50565b6000813590506102ca816102a4565b92915050565b6000602082840312156102e6576102e561026d565b5b60006102f4848285016102bb565b91505092915050565b600061030882610272565b9050919050565b610318816102fd565b811461032357600080fd5b50565b6000813590506103358161030f565b92915050565b6000602082840312156103515761035061026d565b5b600061035f84828501610326565b91505092915050565b6000819050919050565b61037b81610368565b82525050565b60006020820190506103966000830184610372565b92915050565b60006040820190506103b16000830185610372565b6103be6020830184610372565b9392505050565b600081905092915050565b50565b60006103e06000836103c5565b91506103eb826103d0565b600082019050919050565b6000610401826103d3565b9150819050919050565b7f4e487b7100000000000000000000000000000000000000000000000000000000600052601160045260246000fd5b600061044582610368565b915061045083610368565b9250827fffffffffffffffffffffffffffffffffffffffffffffffffffffffffffffffff038211156104855761048461040b565b5b828201905092915050565b610499816102fd565b82525050565b6000819050919050565b60006104c46104bf6104ba84610272565b61049f565b610272565b9050919050565b60006104d6826104a9565b9050919050565b60006104e8826104cb565b9050919050565b6104f8816104dd565b82525050565b60006060820190506105136000830186610490565b61052060208301856104ef565b61052d6040830184610372565b94935050505056fea26469706673582212209d5e22a2d08d0b3a832626047d9492964c02414cab3d24f076b398771005268c64736f6c634300080d0033",
  "linkReferences": {},
  "deployedLinkReferences": {}
}